{
  "transactions": [
    {
      "hash": "0xad885cb1cfd4078d519bc5b591c3d9f2772876d6dbea980b4b31fbaabd796c2a",
      "transactionType": "CALL",
      "contractName": null,
      "contractAddress": "0xd172ee7f44b1d9e2c2445e89e736b980da1f1205",
      "function": "register(string,string[],string[])",
      "arguments": [
        "MIST",
        "[moltbook]",
        "[https://moltbook.com/u/MIST]"
      ],
      "transaction": {
        "from": "0x041613fdd87a4ea14c9409d84489bf348947e360",
        "to": "0xd172ee7f44b1d9e2c2445e89e736b980da1f1205",
        "gas": "0x51ac8",
        "value": "0x38d7ea4c68000",
        "input": "0x8f9cc30e000000000000000000000000000000000000000000000000000000000000006000000000000000000000000000000000000000000000000000000000000000a0000000000000000000000000000000000000000000000000000000000000012000000000000000000000000000000000000000000000000000000000000000044d495354000000000000000000000000000000000000000000000000000000000000000000000000000000000000000000000000000000000000000000000001000000000000000000000000000000000000000000000000000000000000002000000000000000000000000000000000000000000000000000000000000000086d6f6c74626f6f6b00000000000000000000000000000000000000000000000000000000000000000000000000000000000000000000000000000000000000010000000000000000000000000000000000000000000000000000000000000020000000000000000000000000000000000000000000000000000000000000001b68747470733a2f2f6d6f6c74626f6f6b2e636f6d2f752f4d4953540000000000",
        "nonce": "0x2",
        "chainId": "0x2105"
      },
      "additionalContracts": [],
      "isFixedGasLimit": false
    }
  ],
  "receipts": [
    {
      "status": "0x1",
      "cumulativeGasUsed": "0x12f2aec",
      "logs": [
        {
          "address": "0xd172ee7f44b1d9e2c2445e89e736b980da1f1205",
          "topics": [
            "0x921126ae4db4efc87cf569f0e5ce159192ffc65bfce8de0b853fcbcea320bcf4",
            "0x350e1474440d7263207882fcf70ae856301962f1563adc3a47fcbb1ac7c55861"
          ],
          "data": "0x0000000000000000000000000000000000000000000000000000000000000060000000000000000000000000041613fdd87a4ea14c9409d84489bf348947e36000000000000000000000000000000000000000000000000000000000697d611700000000000000000000000000000000000000000000000000000000000000044d49535400000000000000000000000000000000000000000000000000000000",
          "blockHash": "0x31d5255612bca99118ddf30c82abaf0a889bdfd87733c1e6d6bde157abcc9e1e",
          "blockNumber": "0x279821a",
          "blockTimestamp": "0x697d6117",
          "transactionHash": "0xad885cb1cfd4078d519bc5b591c3d9f2772876d6dbea980b4b31fbaabd796c2a",
          "transactionIndex": "0x20",
          "logIndex": "0x11d",
          "removed": false
        }
      ],
      "logsBloom": "0x00000000000000000000000000000000000000000000000000000000000000000000000000000000000000000000000000000000000000000000000000000000000000000000020000000000000000001000000000000000000000000000000000000000000000000000000000000000000000000000000000000000002000000000000000000000000000000000000000000000000000080000000000000000000000000000000000400000000000000000000000000000000000000000000000000002000400000000000000000000000000000000000000000000000000000000000000000000000000000001010000000000000000000000000000000000",
      "type": "0x2",
      "transactionHash": "0xad885cb1cfd4078d519bc5b591c3d9f2772876d6dbea980b4b31fbaabd796c2a",
      "transactionIndex": "0x20",
      "blockHash": "0x31d5255612bca99118ddf30c82abaf0a889bdfd87733c1e6d6bde157abcc9e1e",
      "blockNumber": "0x279821a",
      "gasUsed": "0x3b217",
      "effectiveGasPrice": "0xc12659",
      "blobGasUsed": "0x4aee",
      "from": "0x041613fdd87a4ea14c9409d84489bf348947e360",
      "to": "0xd172ee7f44b1d9e2c2445e89e736b980da1f1205",
      "contractAddress": null,
      "daFootprintGasScalar": "0x8b",
      "l1BaseFeeScalar": "0x8dd",
      "l1BlobBaseFee": "0x33dc54",
      "l1BlobBaseFeeScalar": "0x101c12",
      "l1Fee": "0x324e8e51",
      "l1GasPrice": "0x4249879",
      "l1GasUsed": "0x8a1"
    }
  ],
  "libraries": [],
  "pending": [],
  "returns": {},
  "timestamp": 1769824536885,
  "chain": 8453,
  "commit": null
}