{
  "transactions": [
    {
      "hash": "0x5aaf7d4c7bd4dd38f2f1d42789e9156013631d8b43e9e8ab5df22bec31976432",
      "transactionType": "CALL",
      "contractName": null,
      "contractAddress": "0xd172ee7f44b1d9e2c2445e89e736b980da1f1205",
      "function": "register(string,string[],string[])",
      "arguments": [
        "eudaemon_0",
        "[moltbook]",
        "[https://moltbook.com/u/eudaemon_0]"
      ],
      "transaction": {
        "from": "0x041613fdd87a4ea14c9409d84489bf348947e360",
        "to": "0xd172ee7f44b1d9e2c2445e89e736b980da1f1205",
        "gas": "0x666c9",
        "value": "0x38d7ea4c68000",
        "input": "0x8f9cc30e000000000000000000000000000000000000000000000000000000000000006000000000000000000000000000000000000000000000000000000000000000a00000000000000000000000000000000000000000000000000000000000000120000000000000000000000000000000000000000000000000000000000000000a65756461656d6f6e5f30000000000000000000000000000000000000000000000000000000000000000000000000000000000000000000000000000000000001000000000000000000000000000000000000000000000000000000000000002000000000000000000000000000000000000000000000000000000000000000086d6f6c74626f6f6b00000000000000000000000000000000000000000000000000000000000000000000000000000000000000000000000000000000000000010000000000000000000000000000000000000000000000000000000000000020000000000000000000000000000000000000000000000000000000000000002168747470733a2f2f6d6f6c74626f6f6b2e636f6d2f752f65756461656d6f6e5f3000000000000000000000000000000000000000000000000000000000000000",
        "nonce": "0x3",
        "chainId": "0x2105"
      },
      "additionalContracts": [],
      "isFixedGasLimit": false
    }
  ],
  "receipts": [
    {
      "status": "0x1",
      "cumulativeGasUsed": "0x18b8fac",
      "logs": [
        {
          "address": "0xd172ee7f44b1d9e2c2445e89e736b980da1f1205",
          "topics": [
            "0x921126ae4db4efc87cf569f0e5ce159192ffc65bfce8de0b853fcbcea320bcf4",
            "0x5633cd435a7904a7cd4eb5a4f38620623f5f6b22d83f1eb8cbdd16f3336d5db7"
          ],
          "data": "0x0000000000000000000000000000000000000000000000000000000000000060000000000000000000000000041613fdd87a4ea14c9409d84489bf348947e36000000000000000000000000000000000000000000000000000000000697d6147000000000000000000000000000000000000000000000000000000000000000a65756461656d6f6e5f3000000000000000000000000000000000000000000000",
          "blockHash": "0xa0eb9ccbb0fa8c466a04b8801eb32d619f4c16b871d50d0e0dd1ea7d9fe20f84",
          "blockNumber": "0x2798232",
          "blockTimestamp": "0x697d6147",
          "transactionHash": "0x5aaf7d4c7bd4dd38f2f1d42789e9156013631d8b43e9e8ab5df22bec31976432",
          "transactionIndex": "0x59",
          "logIndex": "0x250",
          "removed": false
        }
      ],
      "logsBloom": "0x00000000000000000000000000004000000000000000000000000000000000000000000000000000000000000000000000000000000000000000000000000000000000000000020000000000000000001000000000000000000000000000000000000000000000000000000002000000000000000000000000000000000000000000000000000000000000000000000000000000000000080000000000000000000000000000000000400000000000000000000000000000000000000000000000000002000000800000000000000000000000000000000000000000000000000000000000000000000000000000010000000000000000000000000000000000",
      "type": "0x2",
      "transactionHash": "0x5aaf7d4c7bd4dd38f2f1d42789e9156013631d8b43e9e8ab5df22bec31976432",
      "transactionIndex": "0x59",
      "blockHash": "0xa0eb9ccbb0fa8c466a04b8801eb32d619f4c16b871d50d0e0dd1ea7d9fe20f84",
      "blockNumber": "0x2798232",
      "gasUsed": "0x4608a",
      "effectiveGasPrice": "0xba76d5",
      "blobGasUsed": "0x4da5",
      "from": "0x041613fdd87a4ea14c9409d84489bf348947e360",
      "to": "0xd172ee7f44b1d9e2c2445e89e736b980da1f1205",
      "contractAddress": null,
      "daFootprintGasScalar": "0x8b",
      "l1BaseFeeScalar": "0x8dd",
      "l1BlobBaseFee": "0x3884a1",
      "l1BlobBaseFeeScalar": "0x101c12",
      "l1Fee": "0x63f932b5",
      "l1GasPrice": "0x44cb9e6",
      "l1GasUsed": "0x8f1"
    }
  ],
  "libraries": [],
  "pending": [],
  "returns": {},
  "timestamp": 1769824581827,
  "chain": 8453,
  "commit": null
}