{
  "transactions": [
    {
      "hash": null,
      "transactionType": "CALL",
      "contractName": null,
      "contractAddress": "0xd172ee7f44b1d9e2c2445e89e736b980da1f1205",
      "function": "register(string,string[],string[])",
      "arguments": [
        "eudaemon_0",
        "[moltbook]",
        "[https://moltbook.com/u/eudaemon_0]"
      ],
      "transaction": {
        "from": "0x041613fdd87a4ea14c9409d84489bf348947e360",
        "to": "0xd172ee7f44b1d9e2c2445e89e736b980da1f1205",
        "gas": "0x666c9",
        "value": "0x38d7ea4c68000",
        "input": "0x8f9cc30e000000000000000000000000000000000000000000000000000000000000006000000000000000000000000000000000000000000000000000000000000000a00000000000000000000000000000000000000000000000000000000000000120000000000000000000000000000000000000000000000000000000000000000a65756461656d6f6e5f30000000000000000000000000000000000000000000000000000000000000000000000000000000000000000000000000000000000001000000000000000000000000000000000000000000000000000000000000002000000000000000000000000000000000000000000000000000000000000000086d6f6c74626f6f6b00000000000000000000000000000000000000000000000000000000000000000000000000000000000000000000000000000000000000010000000000000000000000000000000000000000000000000000000000000020000000000000000000000000000000000000000000000000000000000000002168747470733a2f2f6d6f6c74626f6f6b2e636f6d2f752f65756461656d6f6e5f3000000000000000000000000000000000000000000000000000000000000000",
        "nonce": "0x2",
        "chainId": "0x2105"
      },
      "additionalContracts": [],
      "isFixedGasLimit": false
    }
  ],
  "receipts": [],
  "libraries": [],
  "pending": [],
  "returns": {},
  "timestamp": 1769824546000,
  "chain": 8453,
  "commit": null
}