{
  "transactions": [
    {
      "hash": "0x0dbbb2f483f96cf6ea7c66e09411efa18384a1ff3f541e9487b44bcbdaecb433",
      "transactionType": "CALL",
      "contractName": null,
      "contractAddress": "0xd172ee7f44b1d9e2c2445e89e736b980da1f1205",
      "function": "register(string,string[],string[])",
      "arguments": [
        "AthenaWeaver",
        "[moltbook]",
        "[https://moltbook.com/u/AthenaWeaver]"
      ],
      "transaction": {
        "from": "0x041613fdd87a4ea14c9409d84489bf348947e360",
        "to": "0xd172ee7f44b1d9e2c2445e89e736b980da1f1205",
        "gas": "0x6670f",
        "value": "0x38d7ea4c68000",
        "input": "0x8f9cc30e000000000000000000000000000000000000000000000000000000000000006000000000000000000000000000000000000000000000000000000000000000a00000000000000000000000000000000000000000000000000000000000000120000000000000000000000000000000000000000000000000000000000000000c417468656e6157656176657200000000000000000000000000000000000000000000000000000000000000000000000000000000000000000000000000000001000000000000000000000000000000000000000000000000000000000000002000000000000000000000000000000000000000000000000000000000000000086d6f6c74626f6f6b00000000000000000000000000000000000000000000000000000000000000000000000000000000000000000000000000000000000000010000000000000000000000000000000000000000000000000000000000000020000000000000000000000000000000000000000000000000000000000000002368747470733a2f2f6d6f6c74626f6f6b2e636f6d2f752f417468656e615765617665720000000000000000000000000000000000000000000000000000000000",
        "nonce": "0x4",
        "chainId": "0x2105"
      },
      "additionalContracts": [],
      "isFixedGasLimit": false
    }
  ],
  "receipts": [
    {
      "status": "0x1",
      "cumulativeGasUsed": "0x224450a",
      "logs": [
        {
          "address": "0xd172ee7f44b1d9e2c2445e89e736b980da1f1205",
          "topics": [
            "0x921126ae4db4efc87cf569f0e5ce159192ffc65bfce8de0b853fcbcea320bcf4",
            "0xac574ebc8e77f755b96d9cb0c0c6b574997dd89db0c2b95f7cdd529204d2c4c3"
          ],
          "data": "0x0000000000000000000000000000000000000000000000000000000000000060000000000000000000000000041613fdd87a4ea14c9409d84489bf348947e36000000000000000000000000000000000000000000000000000000000697d617d000000000000000000000000000000000000000000000000000000000000000c417468656e615765617665720000000000000000000000000000000000000000",
          "blockHash": "0x6be1b8884789f33630756c404a86025e29c6953aaf1bbb9e0758a6a76cd53ccb",
          "blockNumber": "0x279824d",
          "blockTimestamp": "0x697d617d",
          "transactionHash": "0x0dbbb2f483f96cf6ea7c66e09411efa18384a1ff3f541e9487b44bcbdaecb433",
          "transactionIndex": "0x58",
          "logIndex": "0x327",
          "removed": false
        }
      ],
      "logsBloom": "0x00000000000000000000000000000000000000000000000000000000000000000000000000000000000000000000000000000000000000000000000000000000000000000000020000000000000000001000000000000000000000000000000000000000000400000000000000000000000000000000000000000000000008000000000000000000000000000000000000040000000000080000000000000000000000000000000000400000000000000000000000000000000000000000000000000002000000000000000000000000000000000000000000000000000000000000000000000000000000000000010000000000000000000000000000000000",
      "type": "0x2",
      "transactionHash": "0x0dbbb2f483f96cf6ea7c66e09411efa18384a1ff3f541e9487b44bcbdaecb433",
      "transactionIndex": "0x58",
      "blockHash": "0x6be1b8884789f33630756c404a86025e29c6953aaf1bbb9e0758a6a76cd53ccb",
      "blockNumber": "0x279824d",
      "gasUsed": "0x460ba",
      "effectiveGasPrice": "0xb6a475",
      "blobGasUsed": "0x4e30",
      "from": "0x041613fdd87a4ea14c9409d84489bf348947e360",
      "to": "0xd172ee7f44b1d9e2c2445e89e736b980da1f1205",
      "contractAddress": null,
      "daFootprintGasScalar": "0x8b",
      "l1BaseFeeScalar": "0x8dd",
      "l1BlobBaseFee": "0x32b5ca",
      "l1BlobBaseFeeScalar": "0x101c12",
      "l1Fee": "0x22b86530",
      "l1GasPrice": "0x3cd9d9a",
      "l1GasUsed": "0x90c"
    }
  ],
  "libraries": [],
  "pending": [],
  "returns": {},
  "timestamp": 1769824636085,
  "chain": 8453,
  "commit": null
}