{
  "transactions": [
    {
      "hash": "0xa53fe3514ac5fd0e3e32b57a2e395d9983e7e7a6188315edb79c32c2caeb10b4",
      "transactionType": "CALL",
      "contractName": null,
      "contractAddress": "0xd172ee7f44b1d9e2c2445e89e736b980da1f1205",
      "function": "register(string,string[],string[])",
      "arguments": [
        "itsrem",
        "[moltbook]",
        "[https://moltbook.com/u/itsrem]"
      ],
      "transaction": {
        "from": "0x041613fdd87a4ea14c9409d84489bf348947e360",
        "to": "0xd172ee7f44b1d9e2c2445e89e736b980da1f1205",
        "gas": "0x51b0b",
        "value": "0x38d7ea4c68000",
        "input": "0x8f9cc30e000000000000000000000000000000000000000000000000000000000000006000000000000000000000000000000000000000000000000000000000000000a00000000000000000000000000000000000000000000000000000000000000120000000000000000000000000000000000000000000000000000000000000000669747372656d00000000000000000000000000000000000000000000000000000000000000000000000000000000000000000000000000000000000000000001000000000000000000000000000000000000000000000000000000000000002000000000000000000000000000000000000000000000000000000000000000086d6f6c74626f6f6b00000000000000000000000000000000000000000000000000000000000000000000000000000000000000000000000000000000000000010000000000000000000000000000000000000000000000000000000000000020000000000000000000000000000000000000000000000000000000000000001d68747470733a2f2f6d6f6c74626f6f6b2e636f6d2f752f69747372656d000000",
        "nonce": "0xa",
        "chainId": "0x2105"
      },
      "additionalContracts": [],
      "isFixedGasLimit": false
    }
  ],
  "receipts": [
    {
      "status": "0x1",
      "cumulativeGasUsed": "0x18f4c07",
      "logs": [
        {
          "address": "0xd172ee7f44b1d9e2c2445e89e736b980da1f1205",
          "topics": [
            "0x921126ae4db4efc87cf569f0e5ce159192ffc65bfce8de0b853fcbcea320bcf4",
            "0xa882644ac6a3a56bd69bb7c38bb42200f3d0b5ef0c84a47d0c5c20899166cb75"
          ],
          "data": "0x0000000000000000000000000000000000000000000000000000000000000060000000000000000000000000041613fdd87a4ea14c9409d84489bf348947e36000000000000000000000000000000000000000000000000000000000697d61ef000000000000000000000000000000000000000000000000000000000000000669747372656d0000000000000000000000000000000000000000000000000000",
          "blockHash": "0xf8bb2a7a2423c677de03a91cca50a0d40c15816a7b758850e8d1f74b1586cc71",
          "blockNumber": "0x2798286",
          "blockTimestamp": "0x697d61ef",
          "transactionHash": "0xa53fe3514ac5fd0e3e32b57a2e395d9983e7e7a6188315edb79c32c2caeb10b4",
          "transactionIndex": "0x6f",
          "logIndex": "0x2a4",
          "removed": false
        }
      ],
      "logsBloom": "0x00000000000000000000000000000000000000000000000000000000000000000000000000000000000000000000000000000000000000000000000000000000000000000000020000000000000000001000080000000000000000000000000000000000000000000000000000000000000000000000000000000000000000000000000000000000000000000000000000000000000000080000000000000000000000000000000000400000000000000000000000000000000000000000000000000002000000000000000000000001000000000000000000000000000000000000000000000000000000000000010000000000000000000000000000010000",
      "type": "0x2",
      "transactionHash": "0xa53fe3514ac5fd0e3e32b57a2e395d9983e7e7a6188315edb79c32c2caeb10b4",
      "transactionIndex": "0x6f",
      "blockHash": "0xf8bb2a7a2423c677de03a91cca50a0d40c15816a7b758850e8d1f74b1586cc71",
      "blockNumber": "0x2798286",
      "gasUsed": "0x3b247",
      "effectiveGasPrice": "0xb36ace",
      "blobGasUsed": "0x4b79",
      "from": "0x041613fdd87a4ea14c9409d84489bf348947e360",
      "to": "0xd172ee7f44b1d9e2c2445e89e736b980da1f1205",
      "contractAddress": null,
      "daFootprintGasScalar": "0x8b",
      "l1BaseFeeScalar": "0x8dd",
      "l1BlobBaseFee": "0x3b554d",
      "l1BlobBaseFeeScalar": "0x101c12",
      "l1Fee": "0x377e7d53",
      "l1GasPrice": "0x4323cff",
      "l1GasUsed": "0x8bc"
    }
  ],
  "libraries": [],
  "pending": [],
  "returns": {},
  "timestamp": 1769824753754,
  "chain": 8453,
  "commit": null
}