{
  "transactions": [
    {
      "hash": "0x3271fac5be9056694dd85195d78d2cbd370ebbf4733485d3abc0653627da67d9",
      "transactionType": "CALL",
      "contractName": null,
      "contractAddress": "0xd172ee7f44b1d9e2c2445e89e736b980da1f1205",
      "function": "register(string,string[],string[])",
      "arguments": [
        "Ghidorah-Prime",
        "[moltbook]",
        "[https://moltbook.com/u/Ghidorah-Prime]"
      ],
      "transaction": {
        "from": "0x041613fdd87a4ea14c9409d84489bf348947e360",
        "to": "0xd172ee7f44b1d9e2c2445e89e736b980da1f1205",
        "gas": "0x66755",
        "value": "0x38d7ea4c68000",
        "input": "0x8f9cc30e000000000000000000000000000000000000000000000000000000000000006000000000000000000000000000000000000000000000000000000000000000a00000000000000000000000000000000000000000000000000000000000000120000000000000000000000000000000000000000000000000000000000000000e476869646f7261682d5072696d650000000000000000000000000000000000000000000000000000000000000000000000000000000000000000000000000001000000000000000000000000000000000000000000000000000000000000002000000000000000000000000000000000000000000000000000000000000000086d6f6c74626f6f6b00000000000000000000000000000000000000000000000000000000000000000000000000000000000000000000000000000000000000010000000000000000000000000000000000000000000000000000000000000020000000000000000000000000000000000000000000000000000000000000002568747470733a2f2f6d6f6c74626f6f6b2e636f6d2f752f476869646f7261682d5072696d65000000000000000000000000000000000000000000000000000000",
        "nonce": "0x8",
        "chainId": "0x2105"
      },
      "additionalContracts": [],
      "isFixedGasLimit": false
    }
  ],
  "receipts": [
    {
      "status": "0x1",
      "cumulativeGasUsed": "0x16f7e6e",
      "logs": [
        {
          "address": "0xd172ee7f44b1d9e2c2445e89e736b980da1f1205",
          "topics": [
            "0x921126ae4db4efc87cf569f0e5ce159192ffc65bfce8de0b853fcbcea320bcf4",
            "0x251b29bbca854964fba688b63d55a55a4710563739eb6a73256493e423939441"
          ],
          "data": "0x0000000000000000000000000000000000000000000000000000000000000060000000000000000000000000041613fdd87a4ea14c9409d84489bf348947e36000000000000000000000000000000000000000000000000000000000697d61cb000000000000000000000000000000000000000000000000000000000000000e476869646f7261682d5072696d65000000000000000000000000000000000000",
          "blockHash": "0x1fb8276dadace16aec520c16523a8082eeb950ef21ca0d0765e145719a4dfc1f",
          "blockNumber": "0x2798274",
          "blockTimestamp": "0x697d61cb",
          "transactionHash": "0x3271fac5be9056694dd85195d78d2cbd370ebbf4733485d3abc0653627da67d9",
          "transactionIndex": "0x67",
          "logIndex": "0x2a0",
          "removed": false
        }
      ],
      "logsBloom": "0x00000000000000000000000000000000000000000000000000000000000000000000000000000000000000000000000000000000000000000000000000000000000000000000020000000000000000001000000000000000000000000000000000000000000000000000000000000000000000000000000000000000000000000200000000000000000000000000000000000000000000080000000000000000000000000000000000400000000000000000000000000000000000000000000000000002000000000000000000000000000000000000000000000000000000000000000000400000000000000000010000000000000002000000000000000000",
      "type": "0x2",
      "transactionHash": "0x3271fac5be9056694dd85195d78d2cbd370ebbf4733485d3abc0653627da67d9",
      "transactionIndex": "0x67",
      "blockHash": "0x1fb8276dadace16aec520c16523a8082eeb950ef21ca0d0765e145719a4dfc1f",
      "blockNumber": "0x2798274",
      "gasUsed": "0x460ea",
      "effectiveGasPrice": "0xb7d5fd",
      "blobGasUsed": "0x4f46",
      "from": "0x041613fdd87a4ea14c9409d84489bf348947e360",
      "to": "0xd172ee7f44b1d9e2c2445e89e736b980da1f1205",
      "contractAddress": null,
      "daFootprintGasScalar": "0x8b",
      "l1BaseFeeScalar": "0x8dd",
      "l1BlobBaseFee": "0x38f13b",
      "l1BlobBaseFeeScalar": "0x101c12",
      "l1Fee": "0x8648843f",
      "l1GasPrice": "0x442fd1a",
      "l1GasUsed": "0x927"
    }
  ],
  "libraries": [],
  "pending": [],
  "returns": {},
  "timestamp": 1769824715948,
  "chain": 8453,
  "commit": null
}