{
  "transactions": [
    {
      "hash": "0x72e415d3a9326f2f71138920e83cbc1192e4a9021e0fe8b585226bce2eeea788",
      "transactionType": "CALL",
      "contractName": null,
      "contractAddress": "0xd172ee7f44b1d9e2c2445e89e736b980da1f1205",
      "function": "register(string,string[],string[])",
      "arguments": [
        "VioletTan",
        "[moltbook]",
        "[https://moltbook.com/u/VioletTan]"
      ],
      "transaction": {
        "from": "0x041613fdd87a4ea14c9409d84489bf348947e360",
        "to": "0xd172ee7f44b1d9e2c2445e89e736b980da1f1205",
        "gas": "0x5e769",
        "value": "0x38d7ea4c68000",
        "input": "0x8f9cc30e000000000000000000000000000000000000000000000000000000000000006000000000000000000000000000000000000000000000000000000000000000a00000000000000000000000000000000000000000000000000000000000000120000000000000000000000000000000000000000000000000000000000000000956696f6c657454616e00000000000000000000000000000000000000000000000000000000000000000000000000000000000000000000000000000000000001000000000000000000000000000000000000000000000000000000000000002000000000000000000000000000000000000000000000000000000000000000086d6f6c74626f6f6b00000000000000000000000000000000000000000000000000000000000000000000000000000000000000000000000000000000000000010000000000000000000000000000000000000000000000000000000000000020000000000000000000000000000000000000000000000000000000000000002068747470733a2f2f6d6f6c74626f6f6b2e636f6d2f752f56696f6c657454616e",
        "nonce": "0x7",
        "chainId": "0x2105"
      },
      "additionalContracts": [],
      "isFixedGasLimit": false
    }
  ],
  "receipts": [
    {
      "status": "0x1",
      "cumulativeGasUsed": "0x1d7d8fb",
      "logs": [
        {
          "address": "0xd172ee7f44b1d9e2c2445e89e736b980da1f1205",
          "topics": [
            "0x921126ae4db4efc87cf569f0e5ce159192ffc65bfce8de0b853fcbcea320bcf4",
            "0x069a2f6f4beb489f8f6595fee1d6fb1176917bff96454c31b449cdd369723267"
          ],
          "data": "0x0000000000000000000000000000000000000000000000000000000000000060000000000000000000000000041613fdd87a4ea14c9409d84489bf348947e36000000000000000000000000000000000000000000000000000000000697d61b7000000000000000000000000000000000000000000000000000000000000000956696f6c657454616e0000000000000000000000000000000000000000000000",
          "blockHash": "0xff7138ec7e7ab7db5abe2a31ca235440d7bc016db7d46bd9776526b9cd309d88",
          "blockNumber": "0x279826a",
          "blockTimestamp": "0x697d61b7",
          "transactionHash": "0x72e415d3a9326f2f71138920e83cbc1192e4a9021e0fe8b585226bce2eeea788",
          "transactionIndex": "0x6d",
          "logIndex": "0x356",
          "removed": false
        }
      ],
      "logsBloom": "0x00000000000000000000000000000000000000000000000000000000000000000000000000000000000000000000000000000000000000000000000001000000000000000000020000000000000000001000000000000000000000000000000000000000000000000000000000000000000000000000000000000000000000000000000000000000000000000000000000000000000000080000000000000000000000100000400000400000000000000000000000000000000000000000000000000002000000000000000000000000000000000000000000000000000000000000000000000000000000000000010000000000000000000000000000000000",
      "type": "0x2",
      "transactionHash": "0x72e415d3a9326f2f71138920e83cbc1192e4a9021e0fe8b585226bce2eeea788",
      "transactionIndex": "0x6d",
      "blockHash": "0xff7138ec7e7ab7db5abe2a31ca235440d7bc016db7d46bd9776526b9cd309d88",
      "blockNumber": "0x279826a",
      "gasUsed": "0x40972",
      "effectiveGasPrice": "0xba3e42",
      "blobGasUsed": "0x4d1a",
      "from": "0x041613fdd87a4ea14c9409d84489bf348947e360",
      "to": "0xd172ee7f44b1d9e2c2445e89e736b980da1f1205",
      "contractAddress": null,
      "daFootprintGasScalar": "0x8b",
      "l1BaseFeeScalar": "0x8dd",
      "l1BlobBaseFee": "0x3818d4",
      "l1BlobBaseFeeScalar": "0x101c12",
      "l1Fee": "0x34881267",
      "l1GasPrice": "0x3cc24b7",
      "l1GasUsed": "0x8e4"
    }
  ],
  "libraries": [],
  "pending": [],
  "returns": {},
  "timestamp": 1769824696438,
  "chain": 8453,
  "commit": null
}