{
  "transactions": [
    {
      "hash": "0x46782c6d1039054be6aa32d43bb0c6737002bf3ca673d0369635a0e814f9cc5d",
      "transactionType": "CALL",
      "contractName": null,
      "contractAddress": "0xd172ee7f44b1d9e2c2445e89e736b980da1f1205",
      "function": "register(string,string[],string[])",
      "arguments": [
        "OverAgent",
        "[moltbook]",
        "[https://moltbook.com/u/OverAgent]"
      ],
      "transaction": {
        "from": "0x041613fdd87a4ea14c9409d84489bf348947e360",
        "to": "0xd172ee7f44b1d9e2c2445e89e736b980da1f1205",
        "gas": "0x5e769",
        "value": "0x38d7ea4c68000",
        "input": "0x8f9cc30e000000000000000000000000000000000000000000000000000000000000006000000000000000000000000000000000000000000000000000000000000000a0000000000000000000000000000000000000000000000000000000000000012000000000000000000000000000000000000000000000000000000000000000094f7665724167656e7400000000000000000000000000000000000000000000000000000000000000000000000000000000000000000000000000000000000001000000000000000000000000000000000000000000000000000000000000002000000000000000000000000000000000000000000000000000000000000000086d6f6c74626f6f6b00000000000000000000000000000000000000000000000000000000000000000000000000000000000000000000000000000000000000010000000000000000000000000000000000000000000000000000000000000020000000000000000000000000000000000000000000000000000000000000002068747470733a2f2f6d6f6c74626f6f6b2e636f6d2f752f4f7665724167656e74",
        "nonce": "0x5",
        "chainId": "0x2105"
      },
      "additionalContracts": [],
      "isFixedGasLimit": false
    }
  ],
  "receipts": [
    {
      "status": "0x1",
      "cumulativeGasUsed": "0x1193dd1",
      "logs": [
        {
          "address": "0xd172ee7f44b1d9e2c2445e89e736b980da1f1205",
          "topics": [
            "0x921126ae4db4efc87cf569f0e5ce159192ffc65bfce8de0b853fcbcea320bcf4",
            "0xb68578e77150bf349b4fedef99a565a7322e8a3c27f752afed08af8d596bd8eb"
          ],
          "data": "0x0000000000000000000000000000000000000000000000000000000000000060000000000000000000000000041613fdd87a4ea14c9409d84489bf348947e36000000000000000000000000000000000000000000000000000000000697d619300000000000000000000000000000000000000000000000000000000000000094f7665724167656e740000000000000000000000000000000000000000000000",
          "blockHash": "0x8553298bc9c189b2faa5040a2f74ad5bcc2cd77a04d33abbda23767fbc9040ef",
          "blockNumber": "0x2798258",
          "blockTimestamp": "0x697d6193",
          "transactionHash": "0x46782c6d1039054be6aa32d43bb0c6737002bf3ca673d0369635a0e814f9cc5d",
          "transactionIndex": "0x3b",
          "logIndex": "0x1c1",
          "removed": false
        }
      ],
      "logsBloom": "0x00000000000000000000000000000000000000000000000000000000000000000000000000000000000000000000000000000000000000000000000000000000000000000000020000000000000000001000000000000000000000000000000000000000000000000000000000000000000000000000000000000000000000400000000000000000000000000000000000000000000000080000000000000000000000000000000000400000000000000000000000000000000000000000000000000002000000000000000000000000080000000000000000000000000200000000000000000000000000000000010000000000000000000000000000000000",
      "type": "0x2",
      "transactionHash": "0x46782c6d1039054be6aa32d43bb0c6737002bf3ca673d0369635a0e814f9cc5d",
      "transactionIndex": "0x3b",
      "blockHash": "0x8553298bc9c189b2faa5040a2f74ad5bcc2cd77a04d33abbda23767fbc9040ef",
      "blockNumber": "0x2798258",
      "gasUsed": "0x40972",
      "effectiveGasPrice": "0xb98d8f",
      "blobGasUsed": "0x4d1a",
      "from": "0x041613fdd87a4ea14c9409d84489bf348947e360",
      "to": "0xd172ee7f44b1d9e2c2445e89e736b980da1f1205",
      "contractAddress": null,
      "daFootprintGasScalar": "0x8b",
      "l1BaseFeeScalar": "0x8dd",
      "l1BlobBaseFee": "0x34a463",
      "l1BlobBaseFeeScalar": "0x101c12",
      "l1Fee": "0x3202b85f",
      "l1GasPrice": "0x3b3ad19",
      "l1GasUsed": "0x8e4"
    }
  ],
  "libraries": [],
  "pending": [],
  "returns": {},
  "timestamp": 1769824660590,
  "chain": 8453,
  "commit": null
}