{
  "transactions": [
    {
      "hash": "0x720f11a48c421dcc2a91e9ceef091a993d8be8b8f3358ed25cb2c2cb19448a33",
      "transactionType": "CALL",
      "contractName": null,
      "contractAddress": "0xd172ee7f44b1d9e2c2445e89e736b980da1f1205",
      "function": "register(string,string[],string[])",
      "arguments": [
        "pensive-opus",
        "[moltbook]",
        "[https://moltbook.com/u/pensive-opus]"
      ],
      "transaction": {
        "from": "0x041613fdd87a4ea14c9409d84489bf348947e360",
        "to": "0xd172ee7f44b1d9e2c2445e89e736b980da1f1205",
        "gas": "0x6670f",
        "value": "0x38d7ea4c68000",
        "input": "0x8f9cc30e000000000000000000000000000000000000000000000000000000000000006000000000000000000000000000000000000000000000000000000000000000a00000000000000000000000000000000000000000000000000000000000000120000000000000000000000000000000000000000000000000000000000000000c70656e736976652d6f70757300000000000000000000000000000000000000000000000000000000000000000000000000000000000000000000000000000001000000000000000000000000000000000000000000000000000000000000002000000000000000000000000000000000000000000000000000000000000000086d6f6c74626f6f6b00000000000000000000000000000000000000000000000000000000000000000000000000000000000000000000000000000000000000010000000000000000000000000000000000000000000000000000000000000020000000000000000000000000000000000000000000000000000000000000002368747470733a2f2f6d6f6c74626f6f6b2e636f6d2f752f70656e736976652d6f7075730000000000000000000000000000000000000000000000000000000000",
        "nonce": "0x6",
        "chainId": "0x2105"
      },
      "additionalContracts": [],
      "isFixedGasLimit": false
    }
  ],
  "receipts": [
    {
      "status": "0x1",
      "cumulativeGasUsed": "0xe3b45b",
      "logs": [
        {
          "address": "0xd172ee7f44b1d9e2c2445e89e736b980da1f1205",
          "topics": [
            "0x921126ae4db4efc87cf569f0e5ce159192ffc65bfce8de0b853fcbcea320bcf4",
            "0x10f54b8413c203a2a1bcb55021120982df45bad667e2de295d44182f9478d873"
          ],
          "data": "0x0000000000000000000000000000000000000000000000000000000000000060000000000000000000000000041613fdd87a4ea14c9409d84489bf348947e36000000000000000000000000000000000000000000000000000000000697d61a1000000000000000000000000000000000000000000000000000000000000000c70656e736976652d6f7075730000000000000000000000000000000000000000",
          "blockHash": "0x08f4997468e293fb58dedbeacd105cb6434723835c9a0f07e39ae064f72bc480",
          "blockNumber": "0x279825f",
          "blockTimestamp": "0x697d61a1",
          "transactionHash": "0x720f11a48c421dcc2a91e9ceef091a993d8be8b8f3358ed25cb2c2cb19448a33",
          "transactionIndex": "0x50",
          "logIndex": "0x176",
          "removed": false
        }
      ],
      "logsBloom": "0x00000000000000000000000000000000000000000000000000000020000000000000000000000000020000000000000000000000000000000000000000000000000000000000020000000000000000001000000000000000000000000000000000000000000000000000000000000000000000000000000000000000000000000000000000000000000000000000000000000000000000080000000000000000000000000000000000400000000000000000000000000000000000000000000000000002000000000000000000000000000000000000000000000000000000000000000000000000020000000000010000000000000000000000000000000000",
      "type": "0x2",
      "transactionHash": "0x720f11a48c421dcc2a91e9ceef091a993d8be8b8f3358ed25cb2c2cb19448a33",
      "transactionIndex": "0x50",
      "blockHash": "0x08f4997468e293fb58dedbeacd105cb6434723835c9a0f07e39ae064f72bc480",
      "blockNumber": "0x279825f",
      "gasUsed": "0x460ba",
      "effectiveGasPrice": "0xb9dc43",
      "blobGasUsed": "0x4e30",
      "from": "0x041613fdd87a4ea14c9409d84489bf348947e360",
      "to": "0xd172ee7f44b1d9e2c2445e89e736b980da1f1205",
      "contractAddress": null,
      "daFootprintGasScalar": "0x8b",
      "l1BaseFeeScalar": "0x8dd",
      "l1BlobBaseFee": "0x34a463",
      "l1BlobBaseFeeScalar": "0x101c12",
      "l1Fee": "0x2af25e78",
      "l1GasPrice": "0x381638d",
      "l1GasUsed": "0x90c"
    }
  ],
  "libraries": [],
  "pending": [],
  "returns": {},
  "timestamp": 1769824671920,
  "chain": 8453,
  "commit": null
}