{
  "transactions": [
    {
      "hash": "0xff8c7a0569dd3f2ea66cd770757bdc9032c0d392eb791538c09fbf94c62da8a2",
      "transactionType": "CALL",
      "contractName": null,
      "contractAddress": "0xd172ee7f44b1d9e2c2445e89e736b980da1f1205",
      "function": "register(string,string[],string[])",
      "arguments": [
        "ackoo",
        "[moltbook]",
        "[https://moltbook.com/u/ackoo]"
      ],
      "transaction": {
        "from": "0x041613fdd87a4ea14c9409d84489bf348947e360",
        "to": "0xd172ee7f44b1d9e2c2445e89e736b980da1f1205",
        "gas": "0x51ae9",
        "value": "0x38d7ea4c68000",
        "input": "0x8f9cc30e000000000000000000000000000000000000000000000000000000000000006000000000000000000000000000000000000000000000000000000000000000a00000000000000000000000000000000000000000000000000000000000000120000000000000000000000000000000000000000000000000000000000000000561636b6f6f0000000000000000000000000000000000000000000000000000000000000000000000000000000000000000000000000000000000000000000001000000000000000000000000000000000000000000000000000000000000002000000000000000000000000000000000000000000000000000000000000000086d6f6c74626f6f6b00000000000000000000000000000000000000000000000000000000000000000000000000000000000000000000000000000000000000010000000000000000000000000000000000000000000000000000000000000020000000000000000000000000000000000000000000000000000000000000001c68747470733a2f2f6d6f6c74626f6f6b2e636f6d2f752f61636b6f6f00000000",
        "nonce": "0x9",
        "chainId": "0x2105"
      },
      "additionalContracts": [],
      "isFixedGasLimit": false
    }
  ],
  "receipts": [
    {
      "status": "0x1",
      "cumulativeGasUsed": "0x1604799",
      "logs": [
        {
          "address": "0xd172ee7f44b1d9e2c2445e89e736b980da1f1205",
          "topics": [
            "0x921126ae4db4efc87cf569f0e5ce159192ffc65bfce8de0b853fcbcea320bcf4",
            "0x942fa09f08ed1427cf7a53c8e217973ef57dcfdc603dbf837dc456cf0d3ef79a"
          ],
          "data": "0x0000000000000000000000000000000000000000000000000000000000000060000000000000000000000000041613fdd87a4ea14c9409d84489bf348947e36000000000000000000000000000000000000000000000000000000000697d61db000000000000000000000000000000000000000000000000000000000000000561636b6f6f000000000000000000000000000000000000000000000000000000",
          "blockHash": "0x6a299454d9c19652ef8fb9d5c1dea922261c3dab493359c99500f3a677a1c74e",
          "blockNumber": "0x279827c",
          "blockTimestamp": "0x697d61db",
          "transactionHash": "0xff8c7a0569dd3f2ea66cd770757bdc9032c0d392eb791538c09fbf94c62da8a2",
          "transactionIndex": "0x52",
          "logIndex": "0x201",
          "removed": false
        }
      ],
      "logsBloom": "0x00000000000000000000000000000000000000000000000000000000000000000000000000000000000000000000000000000000000000000000000000000000000000000000020000000000000000001000000000000000000000000000000000000000000000000000000000000000100000000000000000000000000000000000000000000002000000000000000000000000000000080000000000000000000000000000000000400000000000000000000000000000000000000000000000000002000000000000000000000000000000000000000000000000000000000010000000000000000000000000010000000000000000000000000000000000",
      "type": "0x2",
      "transactionHash": "0xff8c7a0569dd3f2ea66cd770757bdc9032c0d392eb791538c09fbf94c62da8a2",
      "transactionIndex": "0x52",
      "blockHash": "0x6a299454d9c19652ef8fb9d5c1dea922261c3dab493359c99500f3a677a1c74e",
      "blockNumber": "0x279827c",
      "gasUsed": "0x3b22f",
      "effectiveGasPrice": "0xb62b3f",
      "blobGasUsed": "0x4aee",
      "from": "0x041613fdd87a4ea14c9409d84489bf348947e360",
      "to": "0xd172ee7f44b1d9e2c2445e89e736b980da1f1205",
      "contractAddress": null,
      "daFootprintGasScalar": "0x8b",
      "l1BaseFeeScalar": "0x8dd",
      "l1BlobBaseFee": "0x3aabde",
      "l1BlobBaseFeeScalar": "0x101c12",
      "l1Fee": "0x27ca6bed",
      "l1GasPrice": "0x44ba31d",
      "l1GasUsed": "0x8ae"
    }
  ],
  "libraries": [],
  "pending": [],
  "returns": {},
  "timestamp": 1769824729979,
  "chain": 8453,
  "commit": null
}